:100000000C9447010C947F010C947F010C947F01A8
:100010000C947F010C947F010C947F010C947F0160
:100020000C947F010C947F010C943A100C94770F80
:100030000C9466110C947F010C947F010C947F0149
:100040000C947F010C947F010C947F010C947F0130
:100050000C947F010C9434110C947F010C947F015B
:100060000C947F010C947F010C947F010C947F0110
:100070000C947F010C947F010C947F010C947F0100
:100080000C947F010C947F010C947F010C947F01F0
:100090000C947F010C947F010C947F010C947F01E0
:1000A0000C947F010C947F010C947F01FD08FD08E6
:1000B0002F092F092D0B2D0B2D0B2D0BA1097F0ABD
:1000C000900A900AA80DCF0D4F0FCF0D4F0F170EAE
:1000D0003A0E4F0F170F2A0F05010906A101050758
:1000E00019E029E7150025019508750181029501A0
:1000F000750881010507190029FF150026FF0095E5
:1001000006750881000508190129059505750191F5
:1001100002950175039101C009022200010100A0AE
:10012000FA09040000010301010009211101000185
:1001300022400007058103080001120100020000AF
:10014000000817E16161010001020001160341008E
:100150006E00610074006900640061006500360093
:10016000300000000C034100650076006F007A004B
:10017000000004030904165C1E001F00200021007B
:100180002200230024002500260027002D002E0039
:100190002A002B0014001A000800150017001C008C
:1001A00018000C00120013002F003000310039003D
:1001B00004001600070009000A000B000D000E00E5
:1001C0000F003300340000002800E10000001D0093
:1001D0001B00060019000500110010003600370052
:1001E00038000000E500E000E300E200000000004D
:1001F00000002C000000000000000151E600650036
:10020000E40029003A003B003C003D003E003F0076
:100210004000410042004300440045004C00010002
:100220000100520001000100010001000100010075
:100230004600470048000100010001005000510045
:100240004F000100010001000100010049004A00C7
:100250004B0000000100010000000100010001004E
:1002600001000100010001004C004D004E000000A3
:100270000100010001002B5D0000000000000100F2
:100280000000000000000100010001004C051124E5
:100290001FBECFEFDAE0DEBFCDBF04B603FE18C04D
:1002A0008091100290911102A0911202B09113025C
:1002B0008730904BA740B04B59F410921002109227
:1002C00011021092120210921302E0E0F8E3099575
:1002D00011E0A0E0B1E0E4E0FBE302C005900D9284
:1002E000A032B107D9F722E0A0E2B1E001C01D922F
:1002F000A031B207E1F70E9404190C94801D0C9400
:1003000000001F93CF93DF93CDB7DEB767970FB68B
:10031000F894DEBF0FBECDBF4B8B5C8B6D8B7E8B9D
:100320008F8B61111092A90186E09E01235F3F4FE0
:10033000D901E82F1D92EA95E9F795E0FE01739641
:10034000D90101900D929A95E1F79C894E895F89B8
:100350007B897D879E876F87598B488BF901DE01EA
:10036000179601900D928A95E1F7CE0107960E94AB
:100370000D1681113EC086E0FE013796DE01119612
:1003800001900D928A95E1F7FF81E8856A857B856A
:100390006115710531F0EF3F31F481E0FF3F19F451
:1003A00003C081E001C080E080FD23C020916E0188
:1003B00030E0C90101968770992740919F0150E074
:1003C0008417950779F1F983EA837D836C8396E03E
:1003D000929FD001939FB00D1124A159BE4FFE01F1
:1003E000319601900D929A95E1F780936E010E94EB
:1003F0007B1516E080919F0190916E018917F9F0AD
:10040000189FC001112481599E4F0E940D16882308
:10041000B1F080919F0190E00196877099278093B9
:100420009F01E8CF0E94C41B10926E0110929F01A1
:10043000E8E6F1E086E0DF011D928A95E9F767962C
:100440000FB6F894DEBF0FBECDBFDF91CF911F91E5
:1004500008952F923F924F925F926F927F928F9268
:100460009F92AF92BF92CF92DF92EF92FF920F9343
:100470001F93CF93DF93CDB7DEB72C970FB6F894C9
:10048000DEBF0FBECDBFFC010081F180838194816E
:10049000892B39F01FEFF11206C091E00F3F19F4DC
:1004A00003C091E001C090E090FF02C00C946C0B7F
:1004B0003F0185E0DE01169601900D928A95E1F7E5
:1004C000F30122818E819F81222349F00E94961A96
:1004D000182F682F8E819F810E941B1B03C00E94D2
:1004E000EF1A182F26E4129FF00111243EE0F39E2C
:1004F000E00DF11D1124E00FF11DEE0FFF1FEA5872
:10050000FE4FA591B491CD01815095454D018F3F8E
:10051000910510F485E59826F3018281882309F47A
:10052000EAC2FFEF8F16910481F078F00BE280169B
:100530000DE5900619F010924201CDC39091420151
:1005400081E0892780934201D3C5809142018823AD
:1005500009F4ECC01092420110EC8116910450F4A1
:1005600020E88216910408F075C030E483169104E7
:10057000D8F506C08FEF8816910409F008F4A0C0E2
:1005800021E030E040E050E060E070E080E090E0AA
:10059000082D0E94511DE09122012E2BE091230194
:1005A0003E2BE09124014E2BE09125015E2BE09142
:1005B00026016E2BE09127017E2BE09128018E2BE6
:1005C000E09129019E2B2093220130932301409337
:1005D0002401509325016093260170932701809395
:1005E00028019093290178C321E030E040E050E0F9
:1005F00060E070E080E090E08401005411090E9406
:10060000511DE0912A012E2BE0912B013E2BE09110
:100610002C014E2BE0912D015E2BE0912E016E2BD3
:10062000E0912F017E2BE09130018E2BE091310182
:100630009E2B20932A0130932B0140932C01509341
:100640002D0160932E0170932F01809330019093C0
:10065000310142C321E030E040E050E060E070E072
:1006600080E090E08401005811090E94511DE09142
:1006700032012E2BE09133013E2BE09134014E2BC1
:10068000E09135015E2BE09136016E2BE091370150
:100690007E2BE09138018E2BE09139019E2B209327
:1006A000320130933301409334015093350160930C
:1006B00036017093370180933801909339010CC350
:1006C00021E030E040E050E060E070E080E090E069
:1006D0008401005C11090E94511DE0913A012E2B0A
:1006E000E0913B013E2BE0913C014E2BE0913D011E
:1006F0005E2BE0913E016E2BE0913F017E2BE0915D
:1007000040018E2BE09141019E2B20933A013093C2
:100710003B0140933C0150933D0160933E01709337
:100720003F018093400190934101D6C290E4891625
:100730009104D0F450902201A0902301B0902401A4
:10074000E0902501F090260110912701F0912801F9
:10075000E091290121E030E040E050E060E070E00D
:1007600080E090E0082D5FC0E0E88E169104E8F488
:1007700050902A01A0902B01B0902C01E0902D0107
:10078000F0902E0110912F01F0913001E091310194
:1007900021E030E040E050E060E070E080E090E098
:1007A000640100E4C01AD1083DC010EC8116910428
:1007B000E8F450903201A0903301B0903401E09001
:1007C0003501F090360110913701F0913801E09138
:1007D000390121E030E040E050E060E070E080E08E
:1007E00090E0640100E8C01AD1081CC050903A01A2
:1007F000A0903B01B0903C01E0903D01F0903E01A3
:1008000010913F01F0914001E091410121E030E081
:1008100040E050E060E070E080E090E0640100ECD7
:10082000C01AD1080C2D0E94511D5222232E2A20BD
:10083000342E3B20452E4E20F622E72EE1228F2338
:100840008B879E239C8710E48116910458F120E841
:100850008216910460F421E030E040E050E060E076
:1008600070E080E090E084010054110924C021E090
:1008700030EC8316910458F430E040E050E060E042
:1008800070E080E090E084010058110914C030E06D
:1008900040E050E060E070E080E090E08401005CC7
:1008A000110909C021E030E040E050E060E070E074
:1008B00080E090E0082D0E94511D59016A01F62F39
:1008C000E72F8C01252D322D432D542D6F2D7E2D9C
:1008D0008B859C85EF2EFE2E0E946A1D09F0FBC1C0
:1008E00080EC8816910458F490E88916910408F079
:1008F00086C0E0E48E16910408F043C006C0FFEF06
:100900008F16910409F008F4B8C021E030E040E00F
:1009100050E060E070E080E090E0082D0E94511D02
:10092000209530954095509560957095809590955F
:10093000E09122012E23E09123013E23E091240146
:100940004E23E09125015E23E09126016E23E09184
:1009500027017E23E09128018E23E09129019E2327
:1009600020932201309323014093240150932501C9
:1009700060932601709327018093280190932901A9
:10098000B7C384010054110921E030E040E050E099
:1009900060E070E080E090E00E94511D209530956D
:1009A000409550956095709580959095E0912A01BD
:1009B0002E23E0912B013E23E0912C014E23E09168
:1009C0002D015E23E0912E016E23E0912F017E2305
:1009D000E09130018E23E09131019E2320932A0182
:1009E00030932B0140932C0150932D0160932E01E5
:1009F00070932F01809330019093310179C384016A
:100A00000058110921E030E040E050E060E070E083
:100A100080E090E00E94511D2095309540955095C2
:100A20006095709580959095E09132012E23E0912C
:100A300033013E23E09134014E23E09135015E23E2
:100A4000E09136016E23E09137017E23E091380179
:100A50008E23E09139019E2320933201309333019C
:100A60004093340150933501609336017093370100
:100A700080933801909339013BC38401005C1109D4
:100A800021E030E040E050E060E070E080E090E0A5
:100A90000E94511D20953095409550956095709518
:100AA00080959095E0913A012E23E0913B013E2301
:100AB000E0913C014E23E0913D015E23E0913E0137
:100AC0006E23E0913F017E23E09140018E23E0916F
:100AD00041019E2320933A0130933B0140933C0116
:100AE00050933D0160933E0170933F01809340011C
:100AF00090934101FDC20FEF8016910411F008F0B0
:100B0000C8C010E481169104D0F450902201A09046
:100B10002301B0902401E0902501F090260110916E
:100B20002701F0912801E091290121E030E040E027
:100B300050E060E070E080E090E0082D5FC020E8C9
:100B400082169104E8F450902A01A0902B01B090F5
:100B50002C01E0902D01F0902E0110912F01F091C9
:100B60003001E091310121E030E040E050E060E010
:100B700070E080E090E0640100E4C01AD1083DC05C
:100B800010EC81169104E8F450903201A0903301EA
:100B9000B0903401E0903501F090360110913701AA
:100BA000F0913801E091390121E030E040E050E07F
:100BB00060E070E080E090E0640100E8C01AD108D5
:100BC0001CC050903A01A0903B01B0903C01E090D5
:100BD0003D01F0903E0110913F01F0914001E09104
:100BE000410121E030E040E050E060E070E080E072
:100BF00090E0640100ECC01AD1080C2D0E94511D38
:100C00005222332E3A20242E2B20E522F622472E84
:100C10004122F8239E239B8710E481169104D0F093
:100C2000840120E88216910418F40054110909C0C7
:100C300030EC8316910418F40058110902C0005CCE
:100C4000110921E030E040E050E060E070E080E039
:100C500090E009C021E030E040E050E060E070E06A
:100C600080E090E0082D0E94511D59016A014B015E
:100C70008C01E1E0252D332D422D5E2D6F2D742D3D
:100C80008F2F9B8574010E946A1D09F4E0E08E2F6E
:100C900001C081E080FF2CC2A43F8CE5B807E9F1D8
:100CA00078F4A93DECE5BE0791F1AA3DFCE5BF074C
:100CB00009F456C0A83D0CE5B00709F0CFC121C02A
:100CC000A63F1CE5B107D9F1A0F1A73F3CE5B3076A
:100CD00009F440C0C3C14D0124EF82162CE59206F1
:100CE000E1F008F589ED88168CE5980681F09AED1B
:100CF00089169CE59906A1F1E8ED8E16ECE59E06B5
:100D0000C1F506E221EE41EE68ED7CE52EC007E27A
:100D100025EE45EE69ED7CE528C006E221EE40EEC9
:100D200064EF7CE522C0F6EF8F16FCE59F0639F0F4
:100D300060F407E225EE44EE65EF7CE516C006E2BE
:100D400021EE42EE66EF7CE510C017EF81161CE540
:100D5000910679F407E225EE46EE67EF7CE505C0E3
:100D600008E221E045EE6AED7CE5C3010E94D1175F
:100D7000BFC11092DC0184E088168DE5980660F40E
:100D80009BEF89169CE5990690F4C40182509C451E
:100D9000449708F04CC10BC0E2E68E16EDE59E06C6
:100DA00031F0F6EA8F16FDE59F0609F040C10E947A
:100DB0007C149093C2018093C10101E180160CE57F
:100DC000900609F4DAC008F04BC029E082162CE541
:100DD000920609F4AEC028F585E088168CE59806E1
:100DE00009F497C090F4E3E08E16ECE59E0609F452
:100DF00089C008F08BC002E080160CE5900609F06F
:100E000006C18091C101816000C117E081161CE517
:100E1000910609F486C008F088C08091C101806104
:100E2000F4C03DE083163CE5930609F494C060F4F9
:100E30009BE089169CE5990609F485C008F087C0F7
:100E40008091C10188607BC0FFE08F16FCE59F06A2
:100E500009F48BC008F08DC08091C101877FD5C097
:100E60001EEF81161CE5910609F47BC028F535E1DB
:100E700083163CE5930609F48EC070F493E189165D
:100E80009CE5990609F47DC008F09DC00E94C41B32
:100E90008091C1018F77B9C0FCEF8F16FCE59F06EA
:100EA000E1F108F05BC01BEF81161CE5910609F02B
:100EB000AEC08091C20145C022E082162DE59206A7
:100EC00009F48DC058F481148DE5980609F45EC0CC
:100ED00008F06DC08091C201826033C0E2E68E16D8
:100EE000EDE59E0609F481C0F6EA8F16FDE59F0642
:100EF00009F485C003E080160DE5900609F087C06F
:100F000060E06EC08091C10182607FC08091C101AC
:100F100016C08091C101886078C08091C201826052
:100F20004FC08091C101806270C08091C101806416
:100F30006CC00E94C41B8091C101806866C084603F
:100F400064C081603DC08091C1018E7F5EC0809190
:100F5000C1018D7F5AC08091C10116C08091C2012C
:100F600018C08091C2018D7F2BC08091C1018F7EFE
:100F70004CC08091C1018F7D48C08091C1018F7BA1
:100F800044C08091C101877F8B7F3FC08091C201A7
:100F90008D7F8E7F15C08091C10182FB222720F9B1
:100FA00091E0922790FB82F990FB83F92EC080910B
:100FB000C201982F909591708E7F892B90FB81F9BB
:100FC0008093C20124C00E94C41B8091C10187FB91
:100FD000222720F991E0922790FB87F916C061E063
:100FE0008EE090E00E94171D12C08091C10184FB29
:100FF000222720F991E0922790FB84F906C0809186
:10100000C101982F909590FB80F98093C101609168
:10101000C1011091C20184E090E00E94171D612F70
:1010200082E290E00E94171D0E94C41B61C026E16D
:1010300082162CE5920619F58091AA018A7A91E030
:1010400009F490E090934301882311F065E301C017
:1010500069E280E691E00E949C110EC0A631BC4579
:1010600009F06FC080914301882309F433C365E31D
:1010700080E691E00E948F110E94051539C01BE5A2
:1010800081161DE5910671F168F481143CE5930623
:10109000D9F08FED88168CE5980609F052C00E94B1
:1010A0008D1426C09CE589169DE59906E9F0EDE5CD
:1010B0008E169E0609F045C08091C20182FB8827EA
:1010C00080F991E0892711C00E94C41BFFEF04E35F
:1010D0001CE0F15000401040E1F700C000000E9409
:1010E000101106C081E001C080E00E945E1529C099
:1010F0008091A001877009F4EFC2F30182818823F7
:1011000009F4EAC28091C20182FDE6C282E02C9617
:101110000FB6F894DEBF0FBECDBFDF91CF911F9108
:101120000F91FF90EF90DF90CF90BF90AF909F9086
:101130008F907F906F905F904F903F902F900C9486
:101140004115F30182810081F180882359F0802FBD
:101150009F2D0E94961A182F682F802F9F2D0E9476
:101160001B1B05C0802F9F2D0E94EF1A182F26E40D
:10117000129FF00111243EE0F39EE00DF11D1124B9
:10118000E00FF11DEE0FFF1FEA58FE4F859194917D
:101190000E9405138C01B82EF301D280C580C29441
:1011A0003FE0C3228091A0018770B9F0DD20A9F053
:1011B000812F807F803421F080E2800F883068F0BA
:1011C0008091C20182FD09C082E00E944115809198
:1011D000A0018770FF24F3948111F12CE12EE29499
:1011E0009FE0E9228E2D90E08C30910508F035C209
:1011F000FC01EA5AFF4F0C944B1D812F807F1F701A
:10120000882311F01295107FDD20B9F0112309F425
:1012100011C280E2800F883010F0B11006C08091BA
:10122000AA01182B1093AA0105C08091A901182BBF
:101230001093A9010E940515FDC1802F0E94E21B99
:10124000112309F40AC2005E083078F1BB2069F16D
:1012500010958091A90118231093A90129C0812F0D
:10126000807F1F70803211F01295107FBB2021F01B
:10127000F1E0BF16D9F149C08091C20182FF1BC0C5
:10128000DD2069F0112339F08091AA01182B109309
:10129000AA010E94051580E00E945B1CDEC180E06F
:1012A0000E94E21B112309F4D8C1812F0E94FE1471
:1012B0000E940515D2C1DD2081F08091AB01CC20C8
:1012C00051F001E0C01207C0182B181709F4C5C16E
:1012D0001093AB01C2C1812B10C0CC2021F021E0C2
:1012E000C21609F4BAC10E94F81427C0DD2041F0EB
:1012F00035E03C1508F4B1C1812F0E94D81BADC167
:1013000084E08C1508F4A9C118C0DD2049F0CC2078
:1013100099F3F301858180FF8DC18F708583ECCFB8
:10132000CC2059F0093309F095C1FFEF17EE23E007
:10133000F15010402040E1F78BC1812F0E94D11B5A
:101340008CC1812F837009F069C0D1108AC1902FA0
:10135000929596959770990F990F802F8F70882E80
:10136000912CA12CB12C092E04C0880C991CAA1C0C
:10137000BB1C0A94D2F704FF12C04FE050E060E0BB
:1013800070E004C0440F551F661F771F9A95D2F76F
:10139000DB01CA0180959095A095B09503C080E0CF
:1013A00090E0DC0116951695412F4370423019F1FB
:1013B000C8F40091AC011091AD012091AE013091C3
:1013C000AF01413059F088299929AA29BB29BC01CC
:1013D000CD0160237123822393230AC0802A912A9E
:1013E000A22AB32ABC01CD01682979298A299B291F
:1013F0000E94981B36C188299929AA29BB290091E6
:10140000AC011091AD012091AE013091AF01BC0152
:10141000CD016027712782279327EACFDD2019F0BD
:10142000812F817001C08695882309F41AC1902FFD
:10143000929596959770990F990F802F8F70882E9F
:10144000912CA12CB12C092E04C0880C991CAA1C2B
:10145000BB1C0A94D2F704FF12C04FE050E060E0DA
:1014600070E004C0440F551F661F771F9A95D2F78E
:10147000DB01CA0180959095A095B09503C080E0EE
:1014800090E0DC0116951695412F43704230D9F05B
:1014900068F50091BD011091BE012091BF0130910E
:1014A000C001413059F088299929AA29BB29BC01DA
:1014B000CD0160237123822393231EC0802A912AA9
:1014C000A22AB32A13C088299929AA29BB290091E5
:1014D000BD011091BE012091BF013091C001BC013E
:1014E000CD01602771278227932706C0BC01CD015B
:1014F000682979298A299B290E94461BB2C01F703E
:10150000DD2039F0812F0E94771B802F0E94D81B8D
:10151000A8C0802F0E94D11B812F0E94521BA1C006
:10152000802F32EFB31609F443C03B1538F090EF2B
:10153000B91659F0E1EFBE16B1F177C0F3EFBF165F
:10154000F1F124EFB21659F170C0DD2019F134E049
:101550003C1508F482C01F7181E090E0A0E0B0E08B
:10156000AC01BD0104C0440F551F661F771F1A95BB
:10157000D2F78091BD019091BE01A091BF01B091C1
:10158000C0018A019B01082719272A273B27C90187
:10159000B80129C025E02C1508F45FC0DCCF80918C
:1015A000C20182FF23C0DD2029F0812F8F7130C05E
:1015B000DD20D9F3812F8F710E94521B4EC0DD2098
:1015C00079F01F7181E090E0A0E0B0E0BC01CD01B6
:1015D00004C0660F771F881F991F1A95D2F703C0A2
:1015E00060E070E0CB010E94461B37C0DD2099F01F
:1015F0001F71812F0E94771B8091C20182FD07C05D
:1016000038E0139FC001112483608093A001812FD3
:101610000E94771B22C081E00E94411581E08C1559
:10162000E0F482E00E94411518C0DD2029F0CC20B2
:1016300009F4BBCF802F30CECC2009F4BBCF893347
:1016400049F49FEFE7EEF3E09150E040F040E1F71E
:1016500000C00000802F0E94E21B88EF8E0D8430B6
:1016600010F40E94C517FF20A9F08091A00180FD11
:1016700011C0F30112828595859585950E94771B8F
:10168000C3010E9429028091A001859585958595C9
:101690000E94521B85E0F301DE01119601900D922C
:1016A0008A95E1F789819A810E94EF1A9A8106E46E
:1016B000809FF00111241EE0919FE00DF11D112487
:1016C0008981E80FF11DEE0FFF1FEA58FE4F85914B
:1016D000949102C069E2CCCC2C960FB6F894DEBF90
:1016E0000FBECDBFDF91CF911F910F91FF90EF9073
:1016F000DF90CF90BF90AF909F908F907F906F9032
:101700005F904F903F902F900895982F973068F5F5
:101710009093E900981739F05091EC002091ED007A
:101720004091F00003C0562F40E022E021FD02C0AE
:101730009F5FECCF3091EB003E7F3093EB00309118
:10174000ED003D7F3093ED003091EB003160309340
:10175000EB005093EC002093ED004093F0002091BB
:10176000EE0027FDE5CF80E008958F708093E900BB
:1017700081E008952091E4003091E50095E64091E4
:10178000EC00842F817040FF23C08091E80080FD31
:101790001DC080915601882399F0853099F0809181
:1017A000EB0085FD11C04091E4005091E500241745
:1017B000350729F3915011F09A01E1CF84E00895A3
:1017C00082E0089583E0089581E0089580E008951F
:1017D0004091E80042FFDDCF08950F931F93CF9310
:1017E000DF938C010E94BA0B811118C0E80108E058
:1017F00010E08091E80085FD0AC08091E8008E77B6
:101800008093E8000E94BA0B882399F307C089915E
:101810008093F1000150110961F780E0DF91CF91D1
:101820001F910F9108958091580187FF11C08091F9
:10183000E80082FD05C0809156018111F8CF11C0EA
:101840008091E8008B770BC080915601882349F086
:101850008091E80080FFF8CF8091E8008E77809338
:10186000E800089520915E0130915F012617370747
:1018700048F06115710539F42091E8002E77209326
:10188000E80001C0B901FC0120E06115710579F1A2
:10189000809156018823F1F18530F1F18091E800C3
:1018A00083FD3CC08091E80082FD2EC08091E8005D
:1018B00080FFEBCF2091F3008091F20090E0922B1B
:1018C0006115710551F08830910538F4219120930C
:1018D000F100615071090196F3CF21E0089709F0FA
:1018E00020E08091E8008E778093E800CECF211130
:1018F000CFCF0AC080915601882361F0853061F016
:101900008091E80083FD0AC08091E80082FFF2CF59
:1019100080E0089582E0089583E0089581E00895CD
:10192000089508950895089580914B010895CF93E7
:10193000DF9321E02093E9002FEF3091E800215060
:1019400035FD06C035ED3A95F1F700002111F5CFD0
:101950002091E80025FF14C0EC0140E050E068E071
:1019600070E00E94ED0B8091E8008E778093E80094
:1019700088E0FE01ACE4B1E001900D928A95E1F7B8
:10198000DF91CF9108951F93CF93DF93CDB7DEB74B
:10199000AA970FB6F894DEBF0FBECDBFE8E5F1E021
:1019A0008091F100819321E0E036F207C9F7809140
:1019B0005901833009F461C030F4813071F0823014
:1019C00009F49BC0B2C08A3009F487C08B3009F497
:1019D0006CC0893009F0A9C020C080915801813ABB
:1019E00009F0A3C08091E800877F8093E800809190
:1019F0005C0190915D01892B21F468E08CE491E019
:101A000003C060E080E090E070E00E94320C8091C2
:101A1000E8008B778093E80088C08091580181327C
:101A200009F083C080915C0190915D01892B09F0E0
:101A30007CC08091E800877F8093E8008091E80077
:101A400082FD05C0809156018111F8CF6EC02091B2
:101A5000F3008091F20090E0922B029731F4809194
:101A6000F100813011F0863021F48091F1008093F3
:101A70004B018091E8008B7754C080915801813AE6
:101A800009F053C080915C0190915D01892B09F0B0
:101A90004CC08091E800877F8093E8008091E80047
:101AA00080FFFCCF8091000137C0809158018132C6
:101AB000E1F580915C0190915D01892BB1F58091F8
:101AC000E800877F8093E8000E94130C80915A0100
:101AD000809300010E94C41B28C08091580181326C
:101AE00021F58091E800877F8093E8000E94130C25
:101AF00080915B0180934A0118C080915801813A1E
:101B0000A1F48091E800877F8093E8008091E8004D
:101B100080FFFCCF80914A018093F1008091E80022
:101B20008E778093E8000E94130C8091E80083FF79
:101B3000B6C18091580190915901492F50E04A3027
:101B4000510508F0ACC1FA01EE59FF4F0C944B1D42
:101B5000803821F0823809F0A2C108C08091540178
:101B600090915501992389F082600FC080915C01AA
:101B70008F70873008F093C18093E9008091EB006B
:101B800085FB882780F91092E9009091E800977F03
:101B90009093E8008093F1001092F10053C1282F38
:101BA0002D7F09F07CC1882319F0823061F077C164
:101BB00080915A01813009F072C1933009F080E0C0
:101BC000809355012EC080915A0181112AC08091C5
:101BD0005C018F702FEF280F263008F060C18093D2
:101BE000E9002091EB0020FF1CC0933021F480918C
:101BF000EB00806214C09091EB0090619093EB0039
:101C000021E030E0A90102C0440F551F8A95E2F798
:101C10004093EA001092EA008091EB008860809384
:101C2000EB001092E9008091E800877F0EC18111DE
:101C300036C110915A011F778091E3008078812B83
:101C40008093E3008091E800877F8093E8000E9402
:101C5000130C8091E80080FFFCCF8091E300806846
:101C60008093E300111102C082E001C083E0809301
:101C7000560115C18058823008F011C180915A0177
:101C800090915B018C3D53E0950779F583E08A8361
:101C90008AE289834FB7F894DE01139620E03EE094
:101CA00051E2E32FF0E050935700E49120FF03C08E
:101CB000E295EF703F5FEF708E2F90E0EA3010F00A
:101CC000C79601C0C0968D939D932F5F243149F72D
:101CD0004FBF8091E800877F8093E8006AE270E060
:101CE000CE0101960E94320C9CC040915C01509143
:101CF0005D01292F332723303105A9F068F4213005
:101D0000310509F4DBC02230310509F0C8C082E298
:101D100090E0E8E1F1E032C02132310521F12232D8
:101D2000310529F1BCC0992781309105A1F058F007
:101D3000029709F0B4C0ECE4F1E0E4918E2F90E05A
:101D4000ECE4F1E018C0E2E7F1E0E4918E2F90E0DE
:101D5000E2E7F1E010C0E4E6F1E0E4918E2F90E0DC
:101D6000E4E6F1E008C0452B09F4ADC098C0452B6E
:101D700009F4AEC094C0009709F491C02091E80026
:101D8000277F2093E80020915E0130915F01821748
:101D9000930708F49C0140E02115310589F18091F9
:101DA0005601882309F43DC08530D9F18091E800BF
:101DB00083FD37C08091E80082FD2FC08091E8004C
:101DC00080FFEACF4091F3008091F20090E0942BE5
:101DD0002115310559F08830910540F44491409324
:101DE000F1003196215031090196F2CF41E0089778
:101DF00009F040E08091E8008E778093E800CCCF36
:101E00004111CDCF0AC080915601882351F0853011
:101E100041F08091E80083FD04C08091E80082FFDA
:101E2000F2CF8091E8008B778093E80038C080384B
:101E3000B1F58091E800877F8093E8008091570199
:101E40008093F1008091E8008E778093E8000E94F3
:101E5000130C25C0811123C080915A0190915B0120
:101E600099270297E4F48091E800877F8093E80047
:101E700010915A01109357010E94130C111106C0C2
:101E80008091E30087FD02C081E001C084E080937F
:101E9000560161EC81E00E94850B80915601809192
:101EA000E80083FF1AC08091E800877F8093E800F4
:101EB0008091EB0080628093EB000FC082E190E0A4
:101EC000EAE3F1E05BCF89E090E0EAE2F1E056CFAF
:101ED00080E490E0E8EDF0E051CFAA960FB6F894D8
:101EE000DEBF0FBECDBFDF91CF911F9108951F922E
:101EF0000F920FB60F9211242F933F934F935F933E
:101F00006F937F938F939F93AF93BF93CF93DF9301
:101F1000EF93FF93C091E900CF708091EC00D82F30
:101F2000D17080FDD0E81092E9008091F000877FA9
:101F30008093F00078940E94C30C1092E900809185
:101F4000F00088608093F000CD2BCF70C093E90043
:101F5000FF91EF91DF91CF91BF91AF919F918F91C1
:101F60007F916F915F914F913F912F910F900FBE95
:101F70000F901F901895E8EDF0E080818E7F8083B0
:101F80001092E2001092DA001092E100A0EEB0E0B0
:101F90008C9181608C9380818F77808319BCA7EDB1
:101FA000B0E08C918E7F8C9380818F7E80831092A5
:101FB00049010895CF92DF92EF92FF920F931F9302
:101FC000CF93DF93C8EDD0E088818F7E8883E7EDE3
:101FD000F0E080818160808384E082BF81E0809333
:101FE000490188818E7F888302EE10E0F80110821B
:101FF0001092DA0081EEC82ED12CF6011082888171
:102000008F77888388818068888388818F7D8883A3
:1020100019BC10925601109257011092550110925E
:10202000540190EEE92EF12CF70180818B7F8083A3
:1020300088818160888360E080E00E94850BF601E2
:1020400080818E7F8083F8018081816080838081A0
:1020500088608083F70180818E7F808388818061A2
:102060008883DF91CF911F910F91FF90EF90DF90C8
:10207000CF9008951F920F920FB60F9211242F93B5
:102080003F934F935F936F937F938F939F93AF9300
:10209000BF93EF93FF938091E10082FF09C080918D
:1020A000E20082FF05C08091E1008B7F8093E10018
:1020B0008091DA0080FF2AC08091D80080FF26C07E
:1020C0008091DA008E7F8093DA008091D90080FFC2
:1020D00018C080E189BD82E189BD09B400FEFDCF51
:1020E00081E0809356018091490181110FC00E94C7
:1020F000BB0F0E94DA0F8091E20084608093E200BF
:1021000005C019BC10925601109249018091E1005E
:1021100080FF17C08091E20080FF13C08091E20031
:102120008E7F8093E2008091E20080618093E200E4
:102130008091D80080628093D80019BC85E080939C
:1021400056018091E10084FF30C08091E20084FF5D
:102150002CC080E189BD82E189BD09B400FEFDCFBC
:102160008091D8008F7D8093D8008091E1008F7E90
:102170008093E1008091E2008F7E8093E200809165
:10218000E20081608093E20080915701882311F082
:1021900084E007C08091E30087FD02C081E001C0B8
:1021A00083E080935601809156018091E10083FF86
:1021B00026C08091E20083FF22C08091E100877FEA
:1021C0008093E10082E08093560110925701809144
:1021D000E1008E7F8093E1008091E2008E7F80930A
:1021E000E2008091E20080618093E20060E080E0A4
:1021F0000E94850B8091F00088608093F000FF9131
:10220000EF91BF91AF919F918F917F916F915F916E
:102210004F913F912F910F900FBE0F901F901895E7
:1022200081E08093E00080E28093D8001092C900A2
:102230008FE19EE40197F1F700C0000087E090EB8A
:10224000DC018093100290931102A0931202B093CC
:1022500013029CE088E10FB6F894A8958093600083
:102260000FBE90936000FFCF78941F920F920FB62D
:102270000F9211248F939F93AF93BF938091450149
:1022800090914601A0914701B09148010196A11D8E
:10229000B11D8093450190934601A0934701B093EF
:1022A0004801BF91AF919F918F910F900FBE0F90FA
:1022B0001F9018952FB7F894809145019091460191
:1022C000A0914701B09148012FBF08951F920F922E
:1022D0000FB60F9211248F939F93AF93BF9380916A
:1022E0004401811113C08091450190914601A09154
:1022F0004701B09148014196A11DB11D8093450150
:1023000090934601A0934701B0934801BF91AF91CC
:102310009F918F910F900FBE0F901F9018959C0169
:102320002A5F3F4FFC014281461301C01282019691
:1023300082179307B9F708959C01FC0132969FEF2D
:1023400080E04191461789F09F3F19F4411101C087
:10235000982F8F5F8630A9F79F3F39F0F901E90F79
:10236000F11D97FDFA9562830895089580E0089520
:102370009091C10192FF0DC0282F2871283019F4C7
:10238000877F846006C0282F2471243011F48B7F4E
:10239000886093FF0DC0282F2871283119F4877E9B
:1023A000846106C0282F2471243111F48B7E88614A
:1023B0002091C20120FF0DC0382F3871383019F438
:1023C000877F816006C0382F3171313011F48E7FE4
:1023D000886021FF0DC0282F2871283119F4877ECD
:1023E000816106C0282F2171213111F48E7E886110
:1023F00094FD877E0895F894E82FE295EF70F0E061
:1024000031A1282F2F7081E090E001C0880F2A951C
:10241000EAF7982F9095932391A392A1892B82A3F9
:10242000789408956F927F928F929F92AF92BF920D
:10243000CF92DF92EF92FF920F931F93CF93DF9390
:10244000CDB7DEB72A970FB6F894DEBF0FBECDBF6B
:10245000AE014F5F5F4F7A018AE0FA0111928A95CF
:10246000E9F70DE011E06A0166246394712C20E223
:10247000822E21E0922EF80180818F3F09F446C020
:10248000F894E82FE295EF70F0E021A18F70A3019E
:1024900002C0440F551F8A95E2F7CA01922F982B6C
:1024A00091A392A18095892382A3789400C0E2E150
:1024B000F1E021E030E0A12CB12C41914F3F89F0B7
:1024C000A42FA295AF70B0E090968C9190E04F70E1
:1024D00002C0959587954A95E2F780FD02C0C90133
:1024E00002C080E090E0A82AB92A220F331F8E167E
:1024F0009F0619F7F80180818F3F11F00E94FB11B0
:10250000F0EAFA95F1F7F601B182A0820F5F1F4F52
:10251000F2E0CF0ED11C41E00231140709F0ABCF3D
:102520004AE050E0B70183EB91E00E94731D11E097
:10253000009709F410E0892B89F08AE0F701A3EBFA
:10254000B1E001900D928A95E1F781E08093B201AC
:102550000E945A119093B1018093B0018091B20111
:102560008823E9F12091B0013091B1014FB7F8947F
:102570008091450190914601A0914701B091480199
:102580004FBF821B930B059750F18091B30190913F
:10259000B4019093C4018093C3018091B5019091DF
:1025A000B6019093C6018093C5018091B7019091C7
:1025B000B8019093C8018093C7018091B9019091AF
:1025C000BA019093CA018093C9018091BB01909197
:1025D000BC019093CC018093CB011092B201812F6A
:1025E0002A960FB6F894DEBF0FBECDBFDF91CF9114
:1025F0001F910F91FF90EF90DF90CF90BF90AF9021
:102600009F908F907F906F900895CF93DF93823843
:10261000910569F1B0F48133910509F46FC048F474
:102620008932910509F465C08A32910509F46BC0BD
:102630006FC08533910509F457C089339105B9F00E
:1026400067C0833E910571F138F4803E9105B1F089
:10265000823E910511F15CC0863E9105B9F1873E3D
:102660009105C9F1843E910509F052C024C0209122
:10267000C10120FD2AC121FD28C14AC08091C101AC
:1026800080FD1DC18091C20180FF1FC18091C101E9
:1026900084FD12C183EE90E02CC18091C10182FFC4
:1026A00011C1F4CF8091C10182FD0CC18091C201A2
:1026B00080FD0BC1EBCF8091C20181FF0CC18091E5
:1026C000C10184FDF9C087EE90E013C18091C10182
:1026D00083FFFEC0F4CF8091C10183FDF9C08091DA
:1026E000C20181FDF8C0EBCF8091C10185FDF6C02C
:1026F000F8C08091C10185FDF4C0F0C08091C10196
:1027000086FDF2C0F4C08091C10186FDF0C0ECC02E
:10271000811523E59207A8F5811532E5930708F0A6
:1027200099C0811540E29407D0F4811521E0920709
:1027300008F0DFC0853A910550F48430910508F027
:10274000D8C0019709F0B8C081E090E0D2C09C01E8
:10275000205E31092830310508F0AEC0CAC08115AD
:1027600031E5930708F071C0811540E5940708F042
:102770004EC0811520E4920708F49EC09F70906AB5
:10278000B8C0EC01811536E59307F0F4811545E5F5
:10279000940708F078C0C11584E5D80708F06EC02A
:1027A0009E012370332781E090E002C0880F991FBB
:1027B0002A95E2F7C695C69520E2C29FE001112452
:1027C0008C2B9D2B9A6895C081152AE5920778F489
:1027D000811539E5930708F05EC0811548E5940737
:1027E00008F46AC0982F8827806F906A82C090563C
:1027F0008115904208F060C08D2F8F710E94B81132
:10280000282F2F71CE0199279062922B72C09C01C4
:1028100074E0369527957A95E1F7922F9370482FBB
:10282000437021E030E002C0220F331F4A95E2F7E7
:102830003C68392B8F70982F9695969540E2949F1F
:10284000C0011124822B932B54C0982F8827816FAD
:10285000906A4FC0AC014370552721E030E002C0C0
:10286000220F331F4A95E2F78695869540E2849FB2
:10287000C0011124822B932B9C683BC09C2F88277E
:10288000846F906A36C00E94B8118F7190E0982FC3
:10289000882790622EC08F700E94B81194E0D69560
:1028A000C7959A95E1F7CF70D0E0DC2FCC27D0699F
:1028B0009E01282BC9011DC080E090E01AC089E369
:1028C00090E017C082EE90E014C080EE90E011C05E
:1028D00086EE90E00EC084EE90E00BC089E290E0BE
:1028E00008C085E390E005C08AE290E002C081E381
:1028F00090E0DF91CF910895CF9384E090E00E9423
:10290000091DC82F82E290E00E94091D2C2F30E0A3
:10291000A901582BCA01CF91089569EE7EEF80E09E
:1029200090E00E94351D60E082E090E00E94171D5B
:1029300060E083E090E00E94171D1092AC011092BD
:10294000AD011092AE011092AF0160E084E090E022
:102950000E94171D60E082E290E00E94171D60E077
:1029600085E090E00E94171D60E086E090E00E9404
:10297000171D6FEF87E090E00E94171D40E050E0C8
:10298000BA0188E090E00E94291D60E08DE090E0AF
:102990000E94171D40E050E0BA0188E190E00E94DB
:1029A000291D60E087E190E00E94171D40E050E0A3
:1029B000BA018CE190E00E94291D60E070E080E2A5
:1029C00090E00E94351D40E050E0BA0188E190E0BF
:1029D0000E94291D40E050E0BA018FE090E00E9483
:1029E000291D40E050E0BA0183E190E00C94291DDC
:1029F0008091AB0181111092AB0108958095909167
:102A0000AA0189238093AA0108959091AA01809137
:102A1000A901982B909360018091AB01882389F0E4
:102A2000892B80936001E2E6F1E097E080E091502D
:102A300029F021912223D9F38F5FF9CF81110E94D0
:102A4000F81448E050E061EA71E080E691E00E940D
:102A5000731D892BA9F088E0E0E6F1E0A1EAB1E07E
:102A600001900D928A95E1F7E091DD01F091DE0190
:102A7000309731F00280F381E02D80E691E00994F7
:102A800008952091A001809582238093A001982F22
:102A9000977099F430E0482F082E000C550B24173E
:102AA000350759F09091C20192FD07C08595859533
:102AB00085950E94521B1092A0010895CF93C0915A
:102AC000C201C2FB992790F9981799F080FBC2F9CF
:102AD000C093C2016091C10184E090E00E94171D83
:102AE0006C2F82E290E00E94171D82E0CF910C943F
:102AF0004115CF91089580919F0190916E018917A2
:102B000019F08F5F8770FBCF08950F931F93CF93BA
:102B1000DF9380916D0182958F7009F05DC0809187
:102B20006A01882309F458C080919F0110916E01B9
:102B30006091680170916901C0916B01D0916C0145
:102B400091E06F3F09F090E0292F06E0811709F42A
:102B500043C0209721F07F3F21F030E003C031E0F7
:102B600001C0322F90E030FD34C0089FF001099F72
:102B7000F00D1124DF01A159BE4F11963C91119720
:102B8000371327C03C91361324C012963C911297FC
:102B900031111FC013964D915C9114974C1B5D0B26
:102BA000483C5105B0F480916D018F708061809335
:102BB0006D01EC58FE4F80818F708061808388E6C4
:102BC00091E00E942902DF91CF911F910F910C9407
:102BD0007B1501968770BACFDF91CF911F910F912E
:102BE0000895CF93DF93EC010E94961A26E4829F0A
:102BF000C0011124FC012EE0D29FE00DF11D112433
:102C0000EC0FF11DEE0FFF1FEA58FE4F85919491D6
:102C10000E940513DF91CF9108959F92AF92BF92CA
:102C2000CF92DF92EF92FF920F931F93CF93DF9398
:102C3000CDB7DEB761970FB6F894DEBF0FBECDBF3C
:102C40008C0185E0F801DE011D9601900D928A95B8
:102C5000E1F7F801E280909168016091690140918B
:102C60006B0150916C014115510531F06F3F31F40A
:102C700081E09F3F19F403C081E001C080E0F82F9C
:102C8000F1709F2E80FD1AC1F80130812181C3802F
:102C9000D48088E6A82E81E0B82EF0906A01F60173
:102CA000E41BF50BFF2009F4C6C080916D01E83CE0
:102CB000F10508F091C0482F407F09F050C0621321
:102CC00011C093130FC0FE2CE1100CC08F708061F7
:102CD00080936D01C5010E94290280916D01F80168
:102CE000858329C1CD2831F02F3F31F481E03F3F6A
:102CF00019F403C081E001C080E080FD03C081E0E1
:102D00008E2502C080E090E0F82FF170FF2E80FF4A
:102D10001CC080919F0140916E0156E0841709F418
:102D2000E8C090E0589FF001599FF00D1124E1593F
:102D3000FE4F6181261306C06081631303C0628168
:102D4000E61203C001968770E9CFFE2CEE2009F44D
:102D5000F2C080916D01816080936D0149C0621362
:102D600006C0931304C0E11002C0F80186C0C80178
:102D70000E94A41B882351F1EE2041F120916D01A6
:102D8000822F82958F7090E0029774F08091680195
:102D90009091690198878F831986DB86CA862C8774
:102DA000CE0107960E94290286E0F801A8E6B1E06C
:102DB00001900D928A95E1F70E9485150AC062176D
:102DC000C9F0C8010E94A41B81111EC0C8010E9445
:102DD0002902FF24F394AFC0482F407F81F788E693
:102DE00091E00E94290286E0F50111928A95E9F7A7
:102DF000F12CA1C09313E5CFE110E3CFF801858357
:102E0000C8010E94290254C0EE2001F320916D01F7
:102E1000822F82958F7090E0029734F28091680142
:102E2000909169019A8389831B82DD82CC822E83F3
:102E3000CE010196B7CFE83CF105D0F5FE2CEE208F
:102E400029F2621327C0931325C020916D0120FD44
:102E500018C0822F82958F70482F50E04115510580
:102E600081F0F80125834F30510541F08F5F982F95
:102E70009295907F822F8F70892B8583C8010E9445
:102E8000290286E0F801A8E6B1E001900D928A954A
:102E9000E1F751C0C8010E94A41B811185CF809128
:102EA0006D01816080936D01C8010E94290243C0B9
:102EB00086E0F50111928A95E9F73DC0EE2009F40C
:102EC00085CFC8010E94A41BF82E882309F47ECF69
:102ED00086E0F801A8E6B1E001900D928A95E1F74D
:102EE00080916801909169010E94F1150E948515F9
:102EF00022C03D872E878D859E850E94F115292F42
:102F000022952F70223028F49F7039F0811105C06E
:102F10000BC0243028F49F7049F4805E883020F084
:102F2000C8010E9429029F2CF92C05C0F801958147
:102F3000907F99F7F9CF8F2D61960FB6F894DEBF89
:102F40000FBECDBFDF91CF911F910F91FF90EF90FA
:102F5000DF90CF90BF90AF909F9008950F931F93F5
:102F600041E050E060E070E08A019B0104C0000F86
:102F7000111F221F331F8A95D2F7C901B8010E9481
:102F8000981B1F910F910C94C41BE091DD01F091EF
:102F9000DE01309721F00190F081E02D099480E06E
:102FA0000895EF92FF920F93CF93DF93C42FD22F08
:102FB000FC0182818823D1F04093DC010E945A11E8
:102FC0009093DB018093DA0180E28C0F883008F067
:102FD00078C0C77081E001C0880FCA95EAF7DF9119
:102FE000CF910F91FF90EF900C94D81B8091DC0152
:102FF000481356C02091DA013091DB014FB7F894A5
:103000008091450190914601A0914701B0914801FE
:103010004FBF821B930B883C910508F041C0CD1730
:10302000C9F080E28C0F883040F4C77081E001C0A5
:10303000880FCA95EAF70E94D11B80E28D0F883075
:1030400048F481E09D2F977001C0880F9A95EAF7A8
:103050000E94D81B093319F0E12CF12C03C080E544
:10306000E82EF12C802F0E945B1CE114F10451F03A
:103070008FE99FE00197F1F700C0000091E0E91AA5
:10308000F108F3CF802F0E94E21B80E28D0F883081
:10309000C0F4D77081E001C0880FDA95EAF70AC062
:1030A00080E28C0F883068F4C77081E001C0880F1F
:1030B000CA95EAF7DF91CF910F91FF90EF900C94B2
:1030C000D11BDF91CF910F91FF90EF9008958B313D
:1030D00009F474C058F58B3009F492C078F4863046
:1030E00009F446C020F4853009F44CC08BC0873009
:1030F00009F456C0883009F483C084C0803109F4D3
:1031000070C068F48E3009F07DC08091D90182FBD7
:10311000222720F991E0922790FB82F958C086314E
:1031200009F46EC0893109F46BC06CC08A32E9F0D1
:1031300060F4873209F461C028F48E3108F462C06B
:103140008D515CC08932F1F05DC0833450F48A3314
:1031500008F051C0853309F450C0883309F450C0D9
:1031600051C0833409F449C04DC00E948D1448C039
:103170008091D901817F8E7F8093D90181E08093F6
:10318000D80108950E94C41B2FEF84E39CE02150D6
:1031900080409040E1F700C000000E94101130C054
:1031A0008091D901982F9095917090FB80F9809330
:1031B000D901911125C0897F877F10C08091D901E5
:1031C00081FB222720F991E0922790FB81F98093DF
:1031D000D9019923A9F08091D90181608093D90107
:1031E0000FC08091D90183FB222720F991E092271B
:1031F00090FB83F9ECCF895301C080E00E94AE17A9
:1032000081E0089580E00895CF93DF93CDB7DEB7D6
:103210002A970FB6F894DEBF0FBECDBF84B7877F65
:1032200084BF0FB6F894A895809160008861809360
:103230006000109260000FBE90E080E80FB6F89436
:1032400080936100909361000FBE85B7806885BF51
:1032500085B7806885BF86EB91E1909321018093CB
:1032600020010E94BB0F0E94DA0F8091E20084606F
:103270008093E2007894809156018823A1F0109108
:10328000E9001F709091EC00892F817090FD80E81B
:10329000182B1092E9008091E80083FD0E94C30C76
:1032A0001F701093E90082E084BD93E095BD9AEF12
:1032B00097BD80936E000DE011E0A2E1EA2EA1E03F
:1032C000FA2ED8018D918D018F3F11F00E94FB11D4
:1032D000E016F106B1F702E111E0F0E2EF2EF1E0C5
:1032E000FF2EF80181918F018F3F11F00E94FB1199
:1032F000E016F106B1F78AE0E3ECF1E0DF01282FF8
:103300001D922A95E9F7E3EBF1E0DF011D928A9522
:10331000E9F780E090E00E94111D893E9E4F11F078
:103320000E948D1482E090E00E94091D8093D901D3
:103330000E947C149093C2018093C1010E941212DA
:10334000EFE3FCE93197F1F700C000000E94121290
:103350008091C30180FF08C06FEF7FEF80E090E0B5
:103360000E94351D0E94101183E090E00E94091D0B
:10337000682F70E080E090E00E94981B81E091E06F
:103380009093DE018093DD0158E1C52ED12C60E4DD
:10339000962E7DECA72E71E0B72EE0E18E2E809167
:1033A0005601853009F040C012E180915601853008
:1033B00009F036C080915601843009F11092440121
:1033C0000FB6F894A895C09260000FBE909260006E
:1033D00083B7817F846083BF83B7816083BF789424
:1033E000889583B78E7F83BF0FB6F894A895809198
:1033F0006000886180936000109260000FBE809131
:103400005501882391F20E941212E3ECF1E08191C0
:103410009191892B09F074C0AE16BF06C1F7C5CFD4
:103420000E94C41B0E94C5170E941212882359F0E3
:103430008FB7F89440914501509146016091470142
:10344000709148018FBFA3ECB1E0EDECF1E000E03A
:1034500010E0702F2D913D918191919182279327BA
:10346000009779F160E0EE24E394F12CAC014E2159
:103470005F21452B09F169837A832E213F2181E069
:10348000232B09F480E08B830E945A118160782FEE
:103490009D838C8349815A816B818D810E9481013A
:1034A000000F111FF801E353FE4F80819181E82640
:1034B000F926F182E0821AC06F5FEE0CFF1C6E30BD
:1034C000A9F60F5F1F4F0530110519F68FEF8E8398
:1034D0008F8318860E945A118160782F9A87898776
:1034E0004E815F8168858A850E9481010E94C5178F
:1034F0009091D701891709F452CF8093D7014FCF0C
:1035000089BC19BD09B400FEFDCF8091D8008F7D24
:103510008093D8008091E00082608093E0008091E9
:10352000E00081FDFCCF0E94C41B3FCF8F929F9291
:10353000AF92BF92DF92EF92FF920F931F93CF93C0
:10354000DF938090BD019090BE01A090BF01B0902C
:10355000C0014091AC015091AD016091AE017091FC
:10356000AF01842A952AA62AB72ACFE1D0E02EE01F
:10357000929F7001112496E4D92E082F10E0D501F6
:10358000C4010C2E04C0B695A795979587950A940B
:10359000D2F780FD04C0219790F780E014C0DC9E34
:1035A000F001DD9EF00D1124EE0DFF1DE00FF11F67
:1035B000EE0FFF1FEA58FE4F859194910E9405136C
:1035C000019749F38C2FDF91CF911F910F91FF90BD
:1035D000EF90DF90BF90AF909F908F9008952EE076
:1035E000929F800D1124682F669566956695982F99
:1035F000977085E0689FB001112440E050E080E0C2
:10360000FB01E40FF51FED51FE4F208130E0092E44
:1036100002C0369527950A94E2F721703327042ECD
:1036200001C0220F0A94EAF7822B4F5F5F4F4530AB
:10363000510531F708952EE0929F800D1124E82F57
:10364000E695E695E695877051E001C0550F8A959D
:10365000EAF785E0E89FF0011124ED51FE4F20E0EC
:1036600030E070E04081CB01022E02C09695879534
:103670000A94E2F7817081958427852384278193BA
:103680002F5F3F4F2530310569F708956093BD01E5
:103690007093BE018093BF019093C0011092A90165
:1036A0000C9405150F931F9341E050E060E070E02B
:1036B00004C0440F551F661F771F8A95D2F74095A7
:1036C0005095609570958091BD019091BE01A0913B
:1036D000BF01B091C0018A019B01082319232A234D
:1036E0003B23C901B8011F910F910C94461B0F9306
:1036F0001F9341E050E060E070E004C0440F551FAC
:10370000661F771F8A95D2F78091BD019091BE0107
:10371000A091BF01B091C0018A019B01082B192B18
:103720002A2B3B2BC901B8011F910F910C94461B0A
:103730006093AC017093AD018093AE019093AF01A3
:103740001092A9010C940515FC01808191810E94C1
:10375000F11592959F70963079F010F4925001C057
:103760009A50923068F4803F69F018F4883E40F433
:1037700009C0843F29F406C0883E20F0813F11F043
:1037800080E0089581E008951092AA0186E0E2E6C3
:10379000F1E0DF011D928A95E9F71092A9010C94DE
:1037A0000515882321F00E94FE140C940515089538
:1037B000882339F09091AA01892B8093AA010C9457
:1037C00005150895882309F475C0682F823869F4B7
:1037D0000E94C51781FF6EC069E380E691E00E94F8
:1037E0009C110E94051569E30EC0833891F40E9474
:1037F000C51780FF5FC063E580E691E00E949C11E1
:103800000E94051563E580E691E00E948F110C94FB
:103810000515843869F40E94C51782FF4BC067E420
:1038200080E691E00E949C110E94051567E4EBCFB1
:103830008CEF860F813A38F380E2860F883048F4A7
:10384000677081E001C0880F6A95EAF70E94FE1454
:10385000DECF8BE5860F8330A0F48091DF0190915D
:10386000E001892B39F11092E0011092DF01E09123
:10387000DD01F091DE013097E9F00680F781E02D5F
:1038800016C0685A6731B0F48091E1019091E2016D
:10389000892B81F01092E2011092E101E091DD01AB
:1038A000F091DE01309731F00084F185E02D80E069
:1038B00090E009940895CF93882309F4A8C0C82FF5
:1038C0008238B1F40E94C51781FDA1C069E380E68A
:1038D00091E00E949C110E9405152FEF81EE94E06B
:1038E000215080409040E1F700C0000069E317C01C
:1038F0008338D1F40E94C51780FD89C063E580E656
:1039000091E00E949C110E9405152FEF81EE94E03A
:10391000215080409040E1F700C0000063E580E660
:1039200091E00E948F1156C08438B1F40E94C517EF
:1039300082FD6DC067E480E691E00E949C110E94C8
:1039400005152FEF81EE94E0215080409040E1F783
:1039500000C0000067E4E3CF8CEF8C0F813A50F594
:103960008091D801882319F0813049F01DC08091E1
:10397000AA018232A1F58C2F0E94671818C080918D
:10398000AA018232C1F3C43149F018F4CB3049F0B6
:1039900024C0C93219F0C83321F01FC01092D801D9
:1039A0001CC081E0817003C01092D80118C0811141
:1039B0002EC015C080E28C0F883048F5C77081E0BA
:1039C00090E001C0880FCA95EAF79091AA01892B6F
:1039D0008093AA01CF910C94051580E0E3CFE2E635
:1039E000F1E088E691E02191C21749F08E179F0718
:1039F000D1F76C2F80E691E00E949C11EBCF6C2FE9
:103A000080E691E00E948F110E940515F2CFCF91C0
:103A10000895F999FECF92BD81BDF89A992780B596
:103A20000895A8E1B0E042E050E00C943D1D262F3F
:103A3000F999FECF92BD81BDF89A019700B40216A4
:103A400039F01FBA20BD0FB6F894FA9AF99A0FBE52
:103A500008950396272F0E94181D0E94171D252FD9
:103A60000E94181D242F0C94181D0196272F0E94C8
:103A7000181D0C94171DDC01CB01FC01F999FECF38
:103A800006C0F2BDE1BDF89A319600B40D924150E6
:103A90005040B8F70895EE0FFF1F0590F491E02D08
:103AA00009940F93083090F0982F872F762F652F69
:103AB000542F432F322F22270850F4CF220F331FC9
:103AC000441F551F661F771F881F991F0A95B2F75D
:103AD0000F9108952A153B054C055D056E057F0580
:103AE000800791070895FB01DC0104C08D910190CE
:103AF000801921F441505040C8F7881B990B089554
:043B0000F894FFCF67
:103B040001940C970C930C910C920C900C30313264
:103B14003337F0F1F4F5F6F7676636353497969453
:00000001FF
